{
  "transactions": [
    {
      "hash": "0x2fb480d0ddb8847ea3f245680bd3ad67c2a45c7fe316fe4b82b141b955bf5113",
      "transactionType": "CALL",
      "contractName": "CeptorDice",
      "contractAddress": "0x45DB01904b51857F6279FE9006De25bf6dE8d136",
      "function": "addNewTokens(uint256[],uint256[],uint256[],string[])",
      "arguments": [
        "[0, 1, 2, 3]",
        "[1, 5, 15, 25]",
        "[180, 600, 900, 1200]",
        "[https://cdn.discordapp.com/attachments/1082779671369887798/1082780320153214986/logo.png,  https://cdn.discordapp.com/attachments/1082779671369887798/1082780320153214986/logo.png,  https://cdn.discordapp.com/attachments/1082779671369887798/1082780320153214986/logo.png,  https://cdn.discordapp.com/attachments/1082779671369887798/1082780320153214986/logo.png]"
      ],
      "transaction": {
        "type": "0x02",
        "from": "0x8906ea0bc4b4e62314417ecdcbe45757112720e8",
        "to": "0x45db01904b51857f6279fe9006de25bf6de8d136",
        "gas": "0xfb54b",
        "value": "0x0",
        "data": "0x6c410bee0000000000000000000000000000000000000000000000000000000000000080000000000000000000000000000000000000000000000000000000000000012000000000000000000000000000000000000000000000000000000000000001c0000000000000000000000000000000000000000000000000000000000000026000000000000000000000000000000000000000000000000000000000000000040000000000000000000000000000000000000000000000000000000000000000000000000000000000000000000000000000000000000000000000000000000100000000000000000000000000000000000000000000000000000000000000020000000000000000000000000000000000000000000000000000000000000003000000000000000000000000000000000000000000000000000000000000000400000000000000000000000000000000000000000000000000000000000000010000000000000000000000000000000000000000000000000000000000000005000000000000000000000000000000000000000000000000000000000000000f0000000000000000000000000000000000000000000000000000000000000019000000000000000000000000000000000000000000000000000000000000000400000000000000000000000000000000000000000000000000000000000000b40000000000000000000000000000000000000000000000000000000000000258000000000000000000000000000000000000000000000000000000000000038400000000000000000000000000000000000000000000000000000000000004b000000000000000000000000000000000000000000000000000000000000000040000000000000000000000000000000000000000000000000000000000000080000000000000000000000000000000000000000000000000000000000000010000000000000000000000000000000000000000000000000000000000000001800000000000000000000000000000000000000000000000000000000000000200000000000000000000000000000000000000000000000000000000000000005768747470733a2f2f63646e2e646973636f72646170702e636f6d2f6174746163686d656e74732f313038323737393637313336393838373739382f313038323738303332303135333231343938362f6c6f676f2e706e6700000000000000000000000000000000000000000000000000000000000000000000000000000000582068747470733a2f2f63646e2e646973636f72646170702e636f6d2f6174746163686d656e74732f313038323737393637313336393838373739382f313038323738303332303135333231343938362f6c6f676f2e706e67000000000000000000000000000000000000000000000000000000000000000000000000000000582068747470733a2f2f63646e2e646973636f72646170702e636f6d2f6174746163686d656e74732f313038323737393637313336393838373739382f313038323738303332303135333231343938362f6c6f676f2e706e67000000000000000000000000000000000000000000000000000000000000000000000000000000582068747470733a2f2f63646e2e646973636f72646170702e636f6d2f6174746163686d656e74732f313038323737393637313336393838373739382f313038323738303332303135333231343938362f6c6f676f2e706e670000000000000000",
        "nonce": "0x40",
        "accessList": []
      },
      "additionalContracts": [],
      "isFixedGasLimit": false
    }
  ],
  "receipts": [
    {
      "transactionHash": "0x2fb480d0ddb8847ea3f245680bd3ad67c2a45c7fe316fe4b82b141b955bf5113",
      "transactionIndex": "0x8",
      "blockHash": "0x3b456da1392a0c88af5e05ab3f160d07d5966232db308befc9aec61bd9668912",
      "blockNumber": "0x4a299b",
      "from": "0x8906EA0bc4b4e62314417eCdcbe45757112720E8",
      "to": "0x45DB01904b51857F6279FE9006De25bf6dE8d136",
      "cumulativeGasUsed": "0x1a132d",
      "gasUsed": "0xabd9b",
      "contractAddress": null,
      "logs": [],
      "status": "0x1",
      "logsBloom": "0x00000000000000000000000000000000000000000000000000000000000000000000000000000000000000000000000000000000000000000000000000000000000000000000000000000000000000000000000000000000000000000000000000000000000000000000000000000000000000000000000000000000000000000000000000000000000000000000000000000000000000000000000000000000000000000000000000000000000000000000000000000000000000000000000000000000000000000000000000000000000000000000000000000000000000000000000000000000000000000000000000000000000000000000000000000000",
      "type": "0x2",
      "effectiveGasPrice": "0xb977dd80"
    }
  ],
  "libraries": [],
  "pending": [],
  "returns": {
    "0": {
      "internal_type": "bytes32",
      "value": "0x65ed2633bff6e3f94b4453c344b53d8117b45cfe449008f07c3fcadb0679d4f5"
    }
  },
  "timestamp": 1702222159,
  "chain": 11155111,
  "multi": false,
  "commit": "9a6e20e"
}