{
  "transactions": [
    {
      "hash": "0xdd77112158aafdfaa11ae74665a9399b845b7341ddb28ceac134ecbd2e3dfe57",
      "transactionType": "CALL",
      "contractName": null,
      "contractAddress": "0xCF80806243a9261455cd48ABc6951aafe5081920",
      "function": "grantRole(bytes32,address)",
      "arguments": [
        "0x65ed2633bff6e3f94b4453c344b53d8117b45cfe449008f07c3fcadb0679d4f5",
        "0x693C70980222c89CFF63A8aC8FE7d36ff18f8Bc9"
      ],
      "transaction": {
        "type": "0x02",
        "from": "0x8906ea0bc4b4e62314417ecdcbe45757112720e8",
        "to": "0xcf80806243a9261455cd48abc6951aafe5081920",
        "gas": "0x12966",
        "value": "0x0",
        "data": "0x2f2ff15d65ed2633bff6e3f94b4453c344b53d8117b45cfe449008f07c3fcadb0679d4f5000000000000000000000000693c70980222c89cff63a8ac8fe7d36ff18f8bc9",
        "nonce": "0xa0",
        "accessList": []
      },
      "additionalContracts": [],
      "isFixedGasLimit": false
    },
    {
      "hash": "0x851087b2a7794bea9bbe18f7b60ae85a480e11336cf813b60e2a46a018023e3f",
      "transactionType": "CALL",
      "contractName": "CeptorDice",
      "contractAddress": "0xC52f4F4DD6c4f94fDc539f87621cb12755E59491",
      "function": "grantRole(bytes32,address)",
      "arguments": [
        "0xf0887ba65ee2024ea881d91b74c2450ef19e1557f03bed3ea9f16b037cbe2dc9",
        "0x684C50C910555ad41EeE3C33f0dE3E204F76C29A"
      ],
      "transaction": {
        "type": "0x02",
        "from": "0x8906ea0bc4b4e62314417ecdcbe45757112720e8",
        "to": "0xc52f4f4dd6c4f94fdc539f87621cb12755e59491",
        "gas": "0x12655",
        "value": "0x0",
        "data": "0x2f2ff15df0887ba65ee2024ea881d91b74c2450ef19e1557f03bed3ea9f16b037cbe2dc9000000000000000000000000684c50c910555ad41eee3c33f0de3e204f76c29a",
        "nonce": "0xa1",
        "accessList": []
      },
      "additionalContracts": [],
      "isFixedGasLimit": false
    },
    {
      "hash": "0xe895fde2fa73c2aedd80e5a0d616a0fdc157dc11b835e9f627e57a94d25bf092",
      "transactionType": "CALL",
      "contractName": "CeptorDice",
      "contractAddress": "0xC52f4F4DD6c4f94fDc539f87621cb12755E59491",
      "function": "grantRole(bytes32,address)",
      "arguments": [
        "0xf0887ba65ee2024ea881d91b74c2450ef19e1557f03bed3ea9f16b037cbe2dc9",
        "0xCF80806243a9261455cd48ABc6951aafe5081920"
      ],
      "transaction": {
        "type": "0x02",
        "from": "0x8906ea0bc4b4e62314417ecdcbe45757112720e8",
        "to": "0xc52f4f4dd6c4f94fdc539f87621cb12755e59491",
        "gas": "0x12655",
        "value": "0x0",
        "data": "0x2f2ff15df0887ba65ee2024ea881d91b74c2450ef19e1557f03bed3ea9f16b037cbe2dc9000000000000000000000000cf80806243a9261455cd48abc6951aafe5081920",
        "nonce": "0xa2",
        "accessList": []
      },
      "additionalContracts": [],
      "isFixedGasLimit": false
    },
    {
      "hash": "0xd08ee625829d3be8e4d3cd6ecf8aece88c51cbf8132844b45666f36d8f49c6be",
      "transactionType": "CALL",
      "contractName": "CeptorDice",
      "contractAddress": "0xC52f4F4DD6c4f94fDc539f87621cb12755E59491",
      "function": "grantRole(bytes32,address)",
      "arguments": [
        "0xd454abe7b9bdfb22796419a2e5a8d6de1a0f4c51476ef2d4a4cfab43221d89e6",
        "0x693C70980222c89CFF63A8aC8FE7d36ff18f8Bc9"
      ],
      "transaction": {
        "type": "0x02",
        "from": "0x8906ea0bc4b4e62314417ecdcbe45757112720e8",
        "to": "0xc52f4f4dd6c4f94fdc539f87621cb12755e59491",
        "gas": "0xa747",
        "value": "0x0",
        "data": "0x2f2ff15dd454abe7b9bdfb22796419a2e5a8d6de1a0f4c51476ef2d4a4cfab43221d89e6000000000000000000000000693c70980222c89cff63a8ac8fe7d36ff18f8bc9",
        "nonce": "0xa3",
        "accessList": []
      },
      "additionalContracts": [],
      "isFixedGasLimit": false
    },
    {
      "hash": "0xe758a80630740fa6cf915b3c780b6039e8773b3c6f65bebbd2bd4a2baa97bc1c",
      "transactionType": "CALL",
      "contractName": "CeptorDice",
      "contractAddress": "0xC52f4F4DD6c4f94fDc539f87621cb12755E59491",
      "function": "grantRole(bytes32,address)",
      "arguments": [
        "0xd454abe7b9bdfb22796419a2e5a8d6de1a0f4c51476ef2d4a4cfab43221d89e6",
        "0x312475E9A778cD8b5548B5b7F0148Fd7b3553768"
      ],
      "transaction": {
        "type": "0x02",
        "from": "0x8906ea0bc4b4e62314417ecdcbe45757112720e8",
        "to": "0xc52f4f4dd6c4f94fdc539f87621cb12755e59491",
        "gas": "0xa747",
        "value": "0x0",
        "data": "0x2f2ff15dd454abe7b9bdfb22796419a2e5a8d6de1a0f4c51476ef2d4a4cfab43221d89e6000000000000000000000000312475e9a778cd8b5548b5b7f0148fd7b3553768",
        "nonce": "0xa4",
        "accessList": []
      },
      "additionalContracts": [],
      "isFixedGasLimit": false
    },
    {
      "hash": "0x2722cfbb72aff71bb45089aef5479a698653483d632ac31b8205fd470ef8a412",
      "transactionType": "CALL",
      "contractName": "CeptorDice",
      "contractAddress": "0xC52f4F4DD6c4f94fDc539f87621cb12755E59491",
      "function": "addNewTokens(uint256[],uint256[],uint256[],string[])",
      "arguments": [
        "[0, 1, 2, 3]",
        "[1, 5, 15, 25]",
        "[180, 600, 900, 1200]",
        "[https://cdn.discordapp.com/attachments/1082779671369887798/1082780320153214986/logo.png,  https://cdn.discordapp.com/attachments/1082779671369887798/1082780320153214986/logo.png,  https://cdn.discordapp.com/attachments/1082779671369887798/1082780320153214986/logo.png,  https://cdn.discordapp.com/attachments/1082779671369887798/1082780320153214986/logo.png]"
      ],
      "transaction": {
        "type": "0x02",
        "from": "0x8906ea0bc4b4e62314417ecdcbe45757112720e8",
        "to": "0xc52f4f4dd6c4f94fdc539f87621cb12755e59491",
        "gas": "0x25b57",
        "value": "0x0",
        "data": "0x6c410bee0000000000000000000000000000000000000000000000000000000000000080000000000000000000000000000000000000000000000000000000000000012000000000000000000000000000000000000000000000000000000000000001c0000000000000000000000000000000000000000000000000000000000000026000000000000000000000000000000000000000000000000000000000000000040000000000000000000000000000000000000000000000000000000000000000000000000000000000000000000000000000000000000000000000000000000100000000000000000000000000000000000000000000000000000000000000020000000000000000000000000000000000000000000000000000000000000003000000000000000000000000000000000000000000000000000000000000000400000000000000000000000000000000000000000000000000000000000000010000000000000000000000000000000000000000000000000000000000000005000000000000000000000000000000000000000000000000000000000000000f0000000000000000000000000000000000000000000000000000000000000019000000000000000000000000000000000000000000000000000000000000000400000000000000000000000000000000000000000000000000000000000000b40000000000000000000000000000000000000000000000000000000000000258000000000000000000000000000000000000000000000000000000000000038400000000000000000000000000000000000000000000000000000000000004b000000000000000000000000000000000000000000000000000000000000000040000000000000000000000000000000000000000000000000000000000000080000000000000000000000000000000000000000000000000000000000000010000000000000000000000000000000000000000000000000000000000000001800000000000000000000000000000000000000000000000000000000000000200000000000000000000000000000000000000000000000000000000000000005768747470733a2f2f63646e2e646973636f72646170702e636f6d2f6174746163686d656e74732f313038323737393637313336393838373739382f313038323738303332303135333231343938362f6c6f676f2e706e6700000000000000000000000000000000000000000000000000000000000000000000000000000000582068747470733a2f2f63646e2e646973636f72646170702e636f6d2f6174746163686d656e74732f313038323737393637313336393838373739382f313038323738303332303135333231343938362f6c6f676f2e706e67000000000000000000000000000000000000000000000000000000000000000000000000000000582068747470733a2f2f63646e2e646973636f72646170702e636f6d2f6174746163686d656e74732f313038323737393637313336393838373739382f313038323738303332303135333231343938362f6c6f676f2e706e67000000000000000000000000000000000000000000000000000000000000000000000000000000582068747470733a2f2f63646e2e646973636f72646170702e636f6d2f6174746163686d656e74732f313038323737393637313336393838373739382f313038323738303332303135333231343938362f6c6f676f2e706e670000000000000000",
        "nonce": "0xa5",
        "accessList": []
      },
      "additionalContracts": [],
      "isFixedGasLimit": false
    },
    {
      "hash": "0x8e8595f1ccb1ff21c292adbb03b8dd32dc33ce3b0e72b85856a9780d25082fbf",
      "transactionType": "CALL",
      "contractName": null,
      "contractAddress": "0x693C70980222c89CFF63A8aC8FE7d36ff18f8Bc9",
      "function": null,
      "arguments": null,
      "transaction": {
        "type": "0x02",
        "from": "0x8906ea0bc4b4e62314417ecdcbe45757112720e8",
        "to": "0x693c70980222c89cff63a8ac8fe7d36ff18f8bc9",
        "gas": "0xf908",
        "value": "0x0",
        "data": "0x51508f0a000000000000000000000000cf80806243a9261455cd48abc6951aafe5081920",
        "nonce": "0xa6",
        "accessList": []
      },
      "additionalContracts": [],
      "isFixedGasLimit": false
    }
  ],
  "receipts": [],
  "libraries": [],
  "pending": [
    "0xdd77112158aafdfaa11ae74665a9399b845b7341ddb28ceac134ecbd2e3dfe57",
    "0x851087b2a7794bea9bbe18f7b60ae85a480e11336cf813b60e2a46a018023e3f",
    "0xe895fde2fa73c2aedd80e5a0d616a0fdc157dc11b835e9f627e57a94d25bf092",
    "0xd08ee625829d3be8e4d3cd6ecf8aece88c51cbf8132844b45666f36d8f49c6be",
    "0xe758a80630740fa6cf915b3c780b6039e8773b3c6f65bebbd2bd4a2baa97bc1c",
    "0x2722cfbb72aff71bb45089aef5479a698653483d632ac31b8205fd470ef8a412",
    "0x8e8595f1ccb1ff21c292adbb03b8dd32dc33ce3b0e72b85856a9780d25082fbf"
  ],
  "returns": {
    "0": {
      "internal_type": "bytes32",
      "value": "0x65ed2633bff6e3f94b4453c344b53d8117b45cfe449008f07c3fcadb0679d4f5"
    }
  },
  "timestamp": 1702346102,
  "chain": 11155111,
  "multi": false,
  "commit": "80c62ce"
}