{
  "transactions": [
    {
      "hash": "0xdd77112158aafdfaa11ae74665a9399b845b7341ddb28ceac134ecbd2e3dfe57",
      "transactionType": "CALL",
      "contractName": null,
      "contractAddress": "0xCF80806243a9261455cd48ABc6951aafe5081920",
      "function": "grantRole(bytes32,address)",
      "arguments": [
        "0x65ed2633bff6e3f94b4453c344b53d8117b45cfe449008f07c3fcadb0679d4f5",
        "0x693C70980222c89CFF63A8aC8FE7d36ff18f8Bc9"
      ],
      "transaction": {
        "type": "0x02",
        "from": "0x8906ea0bc4b4e62314417ecdcbe45757112720e8",
        "to": "0xcf80806243a9261455cd48abc6951aafe5081920",
        "gas": "0x12966",
        "value": "0x0",
        "data": "0x2f2ff15d65ed2633bff6e3f94b4453c344b53d8117b45cfe449008f07c3fcadb0679d4f5000000000000000000000000693c70980222c89cff63a8ac8fe7d36ff18f8bc9",
        "nonce": "0xa0",
        "accessList": []
      },
      "additionalContracts": [],
      "isFixedGasLimit": false
    },
    {
      "hash": "0x851087b2a7794bea9bbe18f7b60ae85a480e11336cf813b60e2a46a018023e3f",
      "transactionType": "CALL",
      "contractName": "CeptorDice",
      "contractAddress": "0xC52f4F4DD6c4f94fDc539f87621cb12755E59491",
      "function": "grantRole(bytes32,address)",
      "arguments": [
        "0xf0887ba65ee2024ea881d91b74c2450ef19e1557f03bed3ea9f16b037cbe2dc9",
        "0x684C50C910555ad41EeE3C33f0dE3E204F76C29A"
      ],
      "transaction": {
        "type": "0x02",
        "from": "0x8906ea0bc4b4e62314417ecdcbe45757112720e8",
        "to": "0xc52f4f4dd6c4f94fdc539f87621cb12755e59491",
        "gas": "0x12655",
        "value": "0x0",
        "data": "0x2f2ff15df0887ba65ee2024ea881d91b74c2450ef19e1557f03bed3ea9f16b037cbe2dc9000000000000000000000000684c50c910555ad41eee3c33f0de3e204f76c29a",
        "nonce": "0xa1",
        "accessList": []
      },
      "additionalContracts": [],
      "isFixedGasLimit": false
    },
    {
      "hash": "0xe895fde2fa73c2aedd80e5a0d616a0fdc157dc11b835e9f627e57a94d25bf092",
      "transactionType": "CALL",
      "contractName": "CeptorDice",
      "contractAddress": "0xC52f4F4DD6c4f94fDc539f87621cb12755E59491",
      "function": "grantRole(bytes32,address)",
      "arguments": [
        "0xf0887ba65ee2024ea881d91b74c2450ef19e1557f03bed3ea9f16b037cbe2dc9",
        "0xCF80806243a9261455cd48ABc6951aafe5081920"
      ],
      "transaction": {
        "type": "0x02",
        "from": "0x8906ea0bc4b4e62314417ecdcbe45757112720e8",
        "to": "0xc52f4f4dd6c4f94fdc539f87621cb12755e59491",
        "gas": "0x12655",
        "value": "0x0",
        "data": "0x2f2ff15df0887ba65ee2024ea881d91b74c2450ef19e1557f03bed3ea9f16b037cbe2dc9000000000000000000000000cf80806243a9261455cd48abc6951aafe5081920",
        "nonce": "0xa2",
        "accessList": []
      },
      "additionalContracts": [],
      "isFixedGasLimit": false
    },
    {
      "hash": "0xd08ee625829d3be8e4d3cd6ecf8aece88c51cbf8132844b45666f36d8f49c6be",
      "transactionType": "CALL",
      "contractName": "CeptorDice",
      "contractAddress": "0xC52f4F4DD6c4f94fDc539f87621cb12755E59491",
      "function": "grantRole(bytes32,address)",
      "arguments": [
        "0xd454abe7b9bdfb22796419a2e5a8d6de1a0f4c51476ef2d4a4cfab43221d89e6",
        "0x693C70980222c89CFF63A8aC8FE7d36ff18f8Bc9"
      ],
      "transaction": {
        "type": "0x02",
        "from": "0x8906ea0bc4b4e62314417ecdcbe45757112720e8",
        "to": "0xc52f4f4dd6c4f94fdc539f87621cb12755e59491",
        "gas": "0xa747",
        "value": "0x0",
        "data": "0x2f2ff15dd454abe7b9bdfb22796419a2e5a8d6de1a0f4c51476ef2d4a4cfab43221d89e6000000000000000000000000693c70980222c89cff63a8ac8fe7d36ff18f8bc9",
        "nonce": "0xa3",
        "accessList": []
      },
      "additionalContracts": [],
      "isFixedGasLimit": false
    },
    {
      "hash": "0xe758a80630740fa6cf915b3c780b6039e8773b3c6f65bebbd2bd4a2baa97bc1c",
      "transactionType": "CALL",
      "contractName": "CeptorDice",
      "contractAddress": "0xC52f4F4DD6c4f94fDc539f87621cb12755E59491",
      "function": "grantRole(bytes32,address)",
      "arguments": [
        "0xd454abe7b9bdfb22796419a2e5a8d6de1a0f4c51476ef2d4a4cfab43221d89e6",
        "0x312475E9A778cD8b5548B5b7F0148Fd7b3553768"
      ],
      "transaction": {
        "type": "0x02",
        "from": "0x8906ea0bc4b4e62314417ecdcbe45757112720e8",
        "to": "0xc52f4f4dd6c4f94fdc539f87621cb12755e59491",
        "gas": "0xa747",
        "value": "0x0",
        "data": "0x2f2ff15dd454abe7b9bdfb22796419a2e5a8d6de1a0f4c51476ef2d4a4cfab43221d89e6000000000000000000000000312475e9a778cd8b5548b5b7f0148fd7b3553768",
        "nonce": "0xa4",
        "accessList": []
      },
      "additionalContracts": [],
      "isFixedGasLimit": false
    },
    {
      "hash": "0x2722cfbb72aff71bb45089aef5479a698653483d632ac31b8205fd470ef8a412",
      "transactionType": "CALL",
      "contractName": "CeptorDice",
      "contractAddress": "0xC52f4F4DD6c4f94fDc539f87621cb12755E59491",
      "function": "addNewTokens(uint256[],uint256[],uint256[],string[])",
      "arguments": [
        "[0, 1, 2, 3]",
        "[1, 5, 15, 25]",
        "[180, 600, 900, 1200]",
        "[https://cdn.discordapp.com/attachments/1082779671369887798/1082780320153214986/logo.png,  https://cdn.discordapp.com/attachments/1082779671369887798/1082780320153214986/logo.png,  https://cdn.discordapp.com/attachments/1082779671369887798/1082780320153214986/logo.png,  https://cdn.discordapp.com/attachments/1082779671369887798/1082780320153214986/logo.png]"
      ],
      "transaction": {
        "type": "0x02",
        "from": "0x8906ea0bc4b4e62314417ecdcbe45757112720e8",
        "to": "0xc52f4f4dd6c4f94fdc539f87621cb12755e59491",
        "gas": "0x25b57",
        "value": "0x0",
        "data": "0x6c410bee0000000000000000000000000000000000000000000000000000000000000080000000000000000000000000000000000000000000000000000000000000012000000000000000000000000000000000000000000000000000000000000001c0000000000000000000000000000000000000000000000000000000000000026000000000000000000000000000000000000000000000000000000000000000040000000000000000000000000000000000000000000000000000000000000000000000000000000000000000000000000000000000000000000000000000000100000000000000000000000000000000000000000000000000000000000000020000000000000000000000000000000000000000000000000000000000000003000000000000000000000000000000000000000000000000000000000000000400000000000000000000000000000000000000000000000000000000000000010000000000000000000000000000000000000000000000000000000000000005000000000000000000000000000000000000000000000000000000000000000f0000000000000000000000000000000000000000000000000000000000000019000000000000000000000000000000000000000000000000000000000000000400000000000000000000000000000000000000000000000000000000000000b40000000000000000000000000000000000000000000000000000000000000258000000000000000000000000000000000000000000000000000000000000038400000000000000000000000000000000000000000000000000000000000004b000000000000000000000000000000000000000000000000000000000000000040000000000000000000000000000000000000000000000000000000000000080000000000000000000000000000000000000000000000000000000000000010000000000000000000000000000000000000000000000000000000000000001800000000000000000000000000000000000000000000000000000000000000200000000000000000000000000000000000000000000000000000000000000005768747470733a2f2f63646e2e646973636f72646170702e636f6d2f6174746163686d656e74732f313038323737393637313336393838373739382f313038323738303332303135333231343938362f6c6f676f2e706e6700000000000000000000000000000000000000000000000000000000000000000000000000000000582068747470733a2f2f63646e2e646973636f72646170702e636f6d2f6174746163686d656e74732f313038323737393637313336393838373739382f313038323738303332303135333231343938362f6c6f676f2e706e67000000000000000000000000000000000000000000000000000000000000000000000000000000582068747470733a2f2f63646e2e646973636f72646170702e636f6d2f6174746163686d656e74732f313038323737393637313336393838373739382f313038323738303332303135333231343938362f6c6f676f2e706e67000000000000000000000000000000000000000000000000000000000000000000000000000000582068747470733a2f2f63646e2e646973636f72646170702e636f6d2f6174746163686d656e74732f313038323737393637313336393838373739382f313038323738303332303135333231343938362f6c6f676f2e706e670000000000000000",
        "nonce": "0xa5",
        "accessList": []
      },
      "additionalContracts": [],
      "isFixedGasLimit": false
    },
    {
      "hash": "0x8e8595f1ccb1ff21c292adbb03b8dd32dc33ce3b0e72b85856a9780d25082fbf",
      "transactionType": "CALL",
      "contractName": null,
      "contractAddress": "0x693C70980222c89CFF63A8aC8FE7d36ff18f8Bc9",
      "function": null,
      "arguments": null,
      "transaction": {
        "type": "0x02",
        "from": "0x8906ea0bc4b4e62314417ecdcbe45757112720e8",
        "to": "0x693c70980222c89cff63a8ac8fe7d36ff18f8bc9",
        "gas": "0xf908",
        "value": "0x0",
        "data": "0x51508f0a000000000000000000000000cf80806243a9261455cd48abc6951aafe5081920",
        "nonce": "0xa6",
        "accessList": []
      },
      "additionalContracts": [],
      "isFixedGasLimit": false
    }
  ],
  "receipts": [
    {
      "transactionHash": "0xdd77112158aafdfaa11ae74665a9399b845b7341ddb28ceac134ecbd2e3dfe57",
      "transactionIndex": "0x7",
      "blockHash": "0xbba2a429e96a644aeb972ab0cff93b78b848d4f6c5bf785482cdde85040ee19b",
      "blockNumber": "0x4a4dcf",
      "from": "0x8906EA0bc4b4e62314417eCdcbe45757112720E8",
      "to": "0xCF80806243a9261455cd48ABc6951aafe5081920",
      "cumulativeGasUsed": "0x60049",
      "gasUsed": "0xcb5a",
      "contractAddress": null,
      "logs": [
        {
          "address": "0xCF80806243a9261455cd48ABc6951aafe5081920",
          "topics": [
            "0x2f8788117e7eff1d82e926ec794901d17c78024a50270940304540a733656f0d",
            "0x65ed2633bff6e3f94b4453c344b53d8117b45cfe449008f07c3fcadb0679d4f5",
            "0x000000000000000000000000693c70980222c89cff63a8ac8fe7d36ff18f8bc9",
            "0x0000000000000000000000008906ea0bc4b4e62314417ecdcbe45757112720e8"
          ],
          "data": "0x",
          "blockHash": "0xbba2a429e96a644aeb972ab0cff93b78b848d4f6c5bf785482cdde85040ee19b",
          "blockNumber": "0x4a4dcf",
          "transactionHash": "0xdd77112158aafdfaa11ae74665a9399b845b7341ddb28ceac134ecbd2e3dfe57",
          "transactionIndex": "0x7",
          "logIndex": "0x2",
          "removed": false
        }
      ],
      "status": "0x1",
      "logsBloom": "0x00100004000000002000000000000000000000000000000000000000080020000000000000000000001000000000000000000000200000000000000000000000000000000000000000000000000000000000000000000000000200010000000000000000800000000000000000000000000000000000000000000000000000000000000000000000000000000000000000000000000000000000000000000800000000000000000000000000000002000000000040000000001000000000000000000000000000000000000000000000000000000000000100000000000000000000000000000000000000000000000000000000000000000000000000000000",
      "type": "0x2",
      "effectiveGasPrice": "0xde8062133"
    },
    {
      "transactionHash": "0x851087b2a7794bea9bbe18f7b60ae85a480e11336cf813b60e2a46a018023e3f",
      "transactionIndex": "0x8",
      "blockHash": "0xbba2a429e96a644aeb972ab0cff93b78b848d4f6c5bf785482cdde85040ee19b",
      "blockNumber": "0x4a4dcf",
      "from": "0x8906EA0bc4b4e62314417eCdcbe45757112720E8",
      "to": "0xC52f4F4DD6c4f94fDc539f87621cb12755E59491",
      "cumulativeGasUsed": "0x6c98a",
      "gasUsed": "0xc941",
      "contractAddress": null,
      "logs": [
        {
          "address": "0xC52f4F4DD6c4f94fDc539f87621cb12755E59491",
          "topics": [
            "0x2f8788117e7eff1d82e926ec794901d17c78024a50270940304540a733656f0d",
            "0xf0887ba65ee2024ea881d91b74c2450ef19e1557f03bed3ea9f16b037cbe2dc9",
            "0x000000000000000000000000684c50c910555ad41eee3c33f0de3e204f76c29a",
            "0x0000000000000000000000008906ea0bc4b4e62314417ecdcbe45757112720e8"
          ],
          "data": "0x",
          "blockHash": "0xbba2a429e96a644aeb972ab0cff93b78b848d4f6c5bf785482cdde85040ee19b",
          "blockNumber": "0x4a4dcf",
          "transactionHash": "0x851087b2a7794bea9bbe18f7b60ae85a480e11336cf813b60e2a46a018023e3f",
          "transactionIndex": "0x8",
          "logIndex": "0x3",
          "removed": false
        }
      ],
      "status": "0x1",
      "logsBloom": "0x00000004000000002000001000000000000000000000000000000000000000000000000000000000000000000000000000000000000000000000000000000000000000000000000000004000000000000000000000000000000200040000000000000000800000000000000000000000000004000000000000000000000000000000000000000100000000000000000001000000000000000000000000000000000000000000000000000080000000000000000000000000001000000008000000000000000000000000000000000000000400000000000100000000000000000000000000000000000000000000000000000000000000000000000000000000",
      "type": "0x2",
      "effectiveGasPrice": "0xde8062133"
    },
    {
      "transactionHash": "0xe895fde2fa73c2aedd80e5a0d616a0fdc157dc11b835e9f627e57a94d25bf092",
      "transactionIndex": "0x9",
      "blockHash": "0xbba2a429e96a644aeb972ab0cff93b78b848d4f6c5bf785482cdde85040ee19b",
      "blockNumber": "0x4a4dcf",
      "from": "0x8906EA0bc4b4e62314417eCdcbe45757112720E8",
      "to": "0xC52f4F4DD6c4f94fDc539f87621cb12755E59491",
      "cumulativeGasUsed": "0x792cb",
      "gasUsed": "0xc941",
      "contractAddress": null,
      "logs": [
        {
          "address": "0xC52f4F4DD6c4f94fDc539f87621cb12755E59491",
          "topics": [
            "0x2f8788117e7eff1d82e926ec794901d17c78024a50270940304540a733656f0d",
            "0xf0887ba65ee2024ea881d91b74c2450ef19e1557f03bed3ea9f16b037cbe2dc9",
            "0x000000000000000000000000cf80806243a9261455cd48abc6951aafe5081920",
            "0x0000000000000000000000008906ea0bc4b4e62314417ecdcbe45757112720e8"
          ],
          "data": "0x",
          "blockHash": "0xbba2a429e96a644aeb972ab0cff93b78b848d4f6c5bf785482cdde85040ee19b",
          "blockNumber": "0x4a4dcf",
          "transactionHash": "0xe895fde2fa73c2aedd80e5a0d616a0fdc157dc11b835e9f627e57a94d25bf092",
          "transactionIndex": "0x9",
          "logIndex": "0x4",
          "removed": false
        }
      ],
      "status": "0x1",
      "logsBloom": "0x00000004000000002000000000000000000000000000000000000000000000000000000000000000000000000000000008000000000000000000000000000000000000000000000000000000000000000000000000000000000200040000000000000000800000000800000000000000000000000000000000000000000000000000000000000100000000000000000001000000000000000000000000000000000000000000000000000080000000000000000000000000001000000008000000000000000000000000000000000000000400000000000100000000000000000000000000000000000000000000000000000000000000010000000000000000",
      "type": "0x2",
      "effectiveGasPrice": "0xde8062133"
    },
    {
      "transactionHash": "0xd08ee625829d3be8e4d3cd6ecf8aece88c51cbf8132844b45666f36d8f49c6be",
      "transactionIndex": "0xa",
      "blockHash": "0xbba2a429e96a644aeb972ab0cff93b78b848d4f6c5bf785482cdde85040ee19b",
      "blockNumber": "0x4a4dcf",
      "from": "0x8906EA0bc4b4e62314417eCdcbe45757112720E8",
      "to": "0xC52f4F4DD6c4f94fDc539f87621cb12755E59491",
      "cumulativeGasUsed": "0x8052c",
      "gasUsed": "0x7261",
      "contractAddress": null,
      "logs": [],
      "status": "0x1",
      "logsBloom": "0x00000000000000000000000000000000000000000000000000000000000000000000000000000000000000000000000000000000000000000000000000000000000000000000000000000000000000000000000000000000000000000000000000000000000000000000000000000000000000000000000000000000000000000000000000000000000000000000000000000000000000000000000000000000000000000000000000000000000000000000000000000000000000000000000000000000000000000000000000000000000000000000000000000000000000000000000000000000000000000000000000000000000000000000000000000000",
      "type": "0x2",
      "effectiveGasPrice": "0xde8062133"
    },
    {
      "transactionHash": "0xe758a80630740fa6cf915b3c780b6039e8773b3c6f65bebbd2bd4a2baa97bc1c",
      "transactionIndex": "0xb",
      "blockHash": "0xbba2a429e96a644aeb972ab0cff93b78b848d4f6c5bf785482cdde85040ee19b",
      "blockNumber": "0x4a4dcf",
      "from": "0x8906EA0bc4b4e62314417eCdcbe45757112720E8",
      "to": "0xC52f4F4DD6c4f94fDc539f87621cb12755E59491",
      "cumulativeGasUsed": "0x8778d",
      "gasUsed": "0x7261",
      "contractAddress": null,
      "logs": [],
      "status": "0x1",
      "logsBloom": "0x00000000000000000000000000000000000000000000000000000000000000000000000000000000000000000000000000000000000000000000000000000000000000000000000000000000000000000000000000000000000000000000000000000000000000000000000000000000000000000000000000000000000000000000000000000000000000000000000000000000000000000000000000000000000000000000000000000000000000000000000000000000000000000000000000000000000000000000000000000000000000000000000000000000000000000000000000000000000000000000000000000000000000000000000000000000",
      "type": "0x2",
      "effectiveGasPrice": "0xde8062133"
    },
    {
      "transactionHash": "0x2722cfbb72aff71bb45089aef5479a698653483d632ac31b8205fd470ef8a412",
      "transactionIndex": "0xc",
      "blockHash": "0xbba2a429e96a644aeb972ab0cff93b78b848d4f6c5bf785482cdde85040ee19b",
      "blockNumber": "0x4a4dcf",
      "from": "0x8906EA0bc4b4e62314417eCdcbe45757112720E8",
      "to": "0xC52f4F4DD6c4f94fDc539f87621cb12755E59491",
      "cumulativeGasUsed": "0xa1418",
      "gasUsed": "0x19c8b",
      "contractAddress": null,
      "logs": [],
      "status": "0x1",
      "logsBloom": "0x00000000000000000000000000000000000000000000000000000000000000000000000000000000000000000000000000000000000000000000000000000000000000000000000000000000000000000000000000000000000000000000000000000000000000000000000000000000000000000000000000000000000000000000000000000000000000000000000000000000000000000000000000000000000000000000000000000000000000000000000000000000000000000000000000000000000000000000000000000000000000000000000000000000000000000000000000000000000000000000000000000000000000000000000000000000",
      "type": "0x2",
      "effectiveGasPrice": "0xde8062133"
    },
    {
      "transactionHash": "0x8e8595f1ccb1ff21c292adbb03b8dd32dc33ce3b0e72b85856a9780d25082fbf",
      "transactionIndex": "0xd",
      "blockHash": "0xbba2a429e96a644aeb972ab0cff93b78b848d4f6c5bf785482cdde85040ee19b",
      "blockNumber": "0x4a4dcf",
      "from": "0x8906EA0bc4b4e62314417eCdcbe45757112720E8",
      "to": "0x693C70980222c89CFF63A8aC8FE7d36ff18f8Bc9",
      "cumulativeGasUsed": "0xac864",
      "gasUsed": "0xb44c",
      "contractAddress": null,
      "logs": [],
      "status": "0x1",
      "logsBloom": "0x00000000000000000000000000000000000000000000000000000000000000000000000000000000000000000000000000000000000000000000000000000000000000000000000000000000000000000000000000000000000000000000000000000000000000000000000000000000000000000000000000000000000000000000000000000000000000000000000000000000000000000000000000000000000000000000000000000000000000000000000000000000000000000000000000000000000000000000000000000000000000000000000000000000000000000000000000000000000000000000000000000000000000000000000000000000",
      "type": "0x2",
      "effectiveGasPrice": "0xde8062133"
    }
  ],
  "libraries": [],
  "pending": [],
  "returns": {
    "0": {
      "internal_type": "bytes32",
      "value": "0x65ed2633bff6e3f94b4453c344b53d8117b45cfe449008f07c3fcadb0679d4f5"
    }
  },
  "timestamp": 1702346127,
  "chain": 11155111,
  "multi": false,
  "commit": "80c62ce"
}