{
  "transactions": [
    {
      "hash": "0xfdee0b3286a7ce00cd15bf110ceff68b6c8ee28e06cbbd677fe85f6c929dec5b",
      "transactionType": "CALL",
      "contractName": "CeptorDice",
      "contractAddress": "0xdec77A6595a6870CbA1E9313C2d97d852b6b1737",
      "function": "minterMintBatch(address,uint256[],uint256[],bytes)",
      "arguments": [
        "0x1804c8AB1F12E6bbf3894d4083f33e07309d1f38",
        "[0, 1, 2, 3]",
        "[2, 2, 2, 2]",
        "0x"
      ],
      "transaction": {
        "type": "0x02",
        "from": "0x8906ea0bc4b4e62314417ecdcbe45757112720e8",
        "to": "0xdec77a6595a6870cba1e9313c2d97d852b6b1737",
        "gas": "0x2d8e6",
        "value": "0x0",
        "data": "0x01febe170000000000000000000000001804c8ab1f12e6bbf3894d4083f33e07309d1f380000000000000000000000000000000000000000000000000000000000000080000000000000000000000000000000000000000000000000000000000000012000000000000000000000000000000000000000000000000000000000000001c000000000000000000000000000000000000000000000000000000000000000040000000000000000000000000000000000000000000000000000000000000000000000000000000000000000000000000000000000000000000000000000000100000000000000000000000000000000000000000000000000000000000000020000000000000000000000000000000000000000000000000000000000000003000000000000000000000000000000000000000000000000000000000000000400000000000000000000000000000000000000000000000000000000000000020000000000000000000000000000000000000000000000000000000000000002000000000000000000000000000000000000000000000000000000000000000200000000000000000000000000000000000000000000000000000000000000020000000000000000000000000000000000000000000000000000000000000000",
        "nonce": "0x78",
        "accessList": []
      },
      "additionalContracts": [],
      "isFixedGasLimit": false
    },
    {
      "hash": "0x971ab8afb6e3c69ded4d49d3fc973dfaeb0d28b7b53c0056019bc3620231edca",
      "transactionType": "CALL",
      "contractName": null,
      "contractAddress": "0xf89C0496984c80aBB13577337ceE3c152C804e9F",
      "function": null,
      "arguments": null,
      "transaction": {
        "type": "0x02",
        "from": "0x8906ea0bc4b4e62314417ecdcbe45757112720e8",
        "to": "0xf89c0496984c80abb13577337cee3c152c804e9f",
        "gas": "0x5c50c",
        "value": "0x4defe5558ad1",
        "data": "0x0a54ac560000000000000000000000000000000000000000000000000000000000000020000000000000000000000000000000000000000000000000000000000000000b47616d654d617374657231000000000000000000000000000000000000000000",
        "nonce": "0x79",
        "accessList": []
      },
      "additionalContracts": [],
      "isFixedGasLimit": false
    },
    {
      "hash": "0x6ef1686a3fb51544700881d5db851adaf21d77fb6b0a7028d3993df904e7a52f",
      "transactionType": "CALL",
      "contractName": "CeptorDice",
      "contractAddress": "0xdec77A6595a6870CbA1E9313C2d97d852b6b1737",
      "function": "timerBurn(address,uint256,uint256)",
      "arguments": [
        "0x1804c8AB1F12E6bbf3894d4083f33e07309d1f38",
        "1",
        "1"
      ],
      "transaction": {
        "type": "0x02",
        "from": "0x8906ea0bc4b4e62314417ecdcbe45757112720e8",
        "to": "0xdec77a6595a6870cba1e9313c2d97d852b6b1737",
        "gas": "0x1b171",
        "value": "0x0",
        "data": "0xdf6a466a0000000000000000000000001804c8ab1f12e6bbf3894d4083f33e07309d1f3800000000000000000000000000000000000000000000000000000000000000010000000000000000000000000000000000000000000000000000000000000001",
        "nonce": "0x7a",
        "accessList": []
      },
      "additionalContracts": [],
      "isFixedGasLimit": false
    }
  ],
  "receipts": [],
  "libraries": [],
  "pending": [
    "0xfdee0b3286a7ce00cd15bf110ceff68b6c8ee28e06cbbd677fe85f6c929dec5b",
    "0x971ab8afb6e3c69ded4d49d3fc973dfaeb0d28b7b53c0056019bc3620231edca",
    "0x6ef1686a3fb51544700881d5db851adaf21d77fb6b0a7028d3993df904e7a52f"
  ],
  "returns": {},
  "timestamp": 1702257936,
  "chain": 11155111,
  "multi": false,
  "commit": "76bf826"
}