{
  "transactions": [
    {
      "hash": "0xfdee0b3286a7ce00cd15bf110ceff68b6c8ee28e06cbbd677fe85f6c929dec5b",
      "transactionType": "CALL",
      "contractName": "CeptorDice",
      "contractAddress": "0xdec77A6595a6870CbA1E9313C2d97d852b6b1737",
      "function": "minterMintBatch(address,uint256[],uint256[],bytes)",
      "arguments": [
        "0x1804c8AB1F12E6bbf3894d4083f33e07309d1f38",
        "[0, 1, 2, 3]",
        "[2, 2, 2, 2]",
        "0x"
      ],
      "transaction": {
        "type": "0x02",
        "from": "0x8906ea0bc4b4e62314417ecdcbe45757112720e8",
        "to": "0xdec77a6595a6870cba1e9313c2d97d852b6b1737",
        "gas": "0x2d8e6",
        "value": "0x0",
        "data": "0x01febe170000000000000000000000001804c8ab1f12e6bbf3894d4083f33e07309d1f380000000000000000000000000000000000000000000000000000000000000080000000000000000000000000000000000000000000000000000000000000012000000000000000000000000000000000000000000000000000000000000001c000000000000000000000000000000000000000000000000000000000000000040000000000000000000000000000000000000000000000000000000000000000000000000000000000000000000000000000000000000000000000000000000100000000000000000000000000000000000000000000000000000000000000020000000000000000000000000000000000000000000000000000000000000003000000000000000000000000000000000000000000000000000000000000000400000000000000000000000000000000000000000000000000000000000000020000000000000000000000000000000000000000000000000000000000000002000000000000000000000000000000000000000000000000000000000000000200000000000000000000000000000000000000000000000000000000000000020000000000000000000000000000000000000000000000000000000000000000",
        "nonce": "0x78",
        "accessList": []
      },
      "additionalContracts": [],
      "isFixedGasLimit": false
    },
    {
      "hash": "0x971ab8afb6e3c69ded4d49d3fc973dfaeb0d28b7b53c0056019bc3620231edca",
      "transactionType": "CALL",
      "contractName": null,
      "contractAddress": "0xf89C0496984c80aBB13577337ceE3c152C804e9F",
      "function": null,
      "arguments": null,
      "transaction": {
        "type": "0x02",
        "from": "0x8906ea0bc4b4e62314417ecdcbe45757112720e8",
        "to": "0xf89c0496984c80abb13577337cee3c152c804e9f",
        "gas": "0x5c50c",
        "value": "0x4defe5558ad1",
        "data": "0x0a54ac560000000000000000000000000000000000000000000000000000000000000020000000000000000000000000000000000000000000000000000000000000000b47616d654d617374657231000000000000000000000000000000000000000000",
        "nonce": "0x79",
        "accessList": []
      },
      "additionalContracts": [],
      "isFixedGasLimit": false
    },
    {
      "hash": "0x6ef1686a3fb51544700881d5db851adaf21d77fb6b0a7028d3993df904e7a52f",
      "transactionType": "CALL",
      "contractName": "CeptorDice",
      "contractAddress": "0xdec77A6595a6870CbA1E9313C2d97d852b6b1737",
      "function": "timerBurn(address,uint256,uint256)",
      "arguments": [
        "0x1804c8AB1F12E6bbf3894d4083f33e07309d1f38",
        "1",
        "1"
      ],
      "transaction": {
        "type": "0x02",
        "from": "0x8906ea0bc4b4e62314417ecdcbe45757112720e8",
        "to": "0xdec77a6595a6870cba1e9313c2d97d852b6b1737",
        "gas": "0x1b171",
        "value": "0x0",
        "data": "0xdf6a466a0000000000000000000000001804c8ab1f12e6bbf3894d4083f33e07309d1f3800000000000000000000000000000000000000000000000000000000000000010000000000000000000000000000000000000000000000000000000000000001",
        "nonce": "0x7a",
        "accessList": []
      },
      "additionalContracts": [],
      "isFixedGasLimit": false
    }
  ],
  "receipts": [
    {
      "transactionHash": "0xfdee0b3286a7ce00cd15bf110ceff68b6c8ee28e06cbbd677fe85f6c929dec5b",
      "transactionIndex": "0x0",
      "blockHash": "0x382c40fc1bfbe2920e28d145390b17d28d62daf9d02a6077dae9d32422391267",
      "blockNumber": "0x4a3411",
      "from": "0x8906EA0bc4b4e62314417eCdcbe45757112720E8",
      "to": "0xdec77A6595a6870CbA1E9313C2d97d852b6b1737",
      "cumulativeGasUsed": "0x20fb6",
      "gasUsed": "0x20fb6",
      "contractAddress": null,
      "logs": [
        {
          "address": "0xdec77A6595a6870CbA1E9313C2d97d852b6b1737",
          "topics": [
            "0xc3d58168c5ae7397731d063d5bbf3d657854427343f4c083240f7aacaa2d0f62",
            "0x0000000000000000000000008906ea0bc4b4e62314417ecdcbe45757112720e8",
            "0x0000000000000000000000000000000000000000000000000000000000000000",
            "0x0000000000000000000000001804c8ab1f12e6bbf3894d4083f33e07309d1f38"
          ],
          "data": "0x00000000000000000000000000000000000000000000000000000000000000000000000000000000000000000000000000000000000000000000000000000002",
          "blockHash": "0x382c40fc1bfbe2920e28d145390b17d28d62daf9d02a6077dae9d32422391267",
          "blockNumber": "0x4a3411",
          "transactionHash": "0xfdee0b3286a7ce00cd15bf110ceff68b6c8ee28e06cbbd677fe85f6c929dec5b",
          "transactionIndex": "0x0",
          "logIndex": "0x0",
          "removed": false
        },
        {
          "address": "0xdec77A6595a6870CbA1E9313C2d97d852b6b1737",
          "topics": [
            "0xc3d58168c5ae7397731d063d5bbf3d657854427343f4c083240f7aacaa2d0f62",
            "0x0000000000000000000000008906ea0bc4b4e62314417ecdcbe45757112720e8",
            "0x0000000000000000000000000000000000000000000000000000000000000000",
            "0x0000000000000000000000001804c8ab1f12e6bbf3894d4083f33e07309d1f38"
          ],
          "data": "0x00000000000000000000000000000000000000000000000000000000000000010000000000000000000000000000000000000000000000000000000000000002",
          "blockHash": "0x382c40fc1bfbe2920e28d145390b17d28d62daf9d02a6077dae9d32422391267",
          "blockNumber": "0x4a3411",
          "transactionHash": "0xfdee0b3286a7ce00cd15bf110ceff68b6c8ee28e06cbbd677fe85f6c929dec5b",
          "transactionIndex": "0x0",
          "logIndex": "0x1",
          "removed": false
        },
        {
          "address": "0xdec77A6595a6870CbA1E9313C2d97d852b6b1737",
          "topics": [
            "0xc3d58168c5ae7397731d063d5bbf3d657854427343f4c083240f7aacaa2d0f62",
            "0x0000000000000000000000008906ea0bc4b4e62314417ecdcbe45757112720e8",
            "0x0000000000000000000000000000000000000000000000000000000000000000",
            "0x0000000000000000000000001804c8ab1f12e6bbf3894d4083f33e07309d1f38"
          ],
          "data": "0x00000000000000000000000000000000000000000000000000000000000000020000000000000000000000000000000000000000000000000000000000000002",
          "blockHash": "0x382c40fc1bfbe2920e28d145390b17d28d62daf9d02a6077dae9d32422391267",
          "blockNumber": "0x4a3411",
          "transactionHash": "0xfdee0b3286a7ce00cd15bf110ceff68b6c8ee28e06cbbd677fe85f6c929dec5b",
          "transactionIndex": "0x0",
          "logIndex": "0x2",
          "removed": false
        },
        {
          "address": "0xdec77A6595a6870CbA1E9313C2d97d852b6b1737",
          "topics": [
            "0xc3d58168c5ae7397731d063d5bbf3d657854427343f4c083240f7aacaa2d0f62",
            "0x0000000000000000000000008906ea0bc4b4e62314417ecdcbe45757112720e8",
            "0x0000000000000000000000000000000000000000000000000000000000000000",
            "0x0000000000000000000000001804c8ab1f12e6bbf3894d4083f33e07309d1f38"
          ],
          "data": "0x00000000000000000000000000000000000000000000000000000000000000030000000000000000000000000000000000000000000000000000000000000002",
          "blockHash": "0x382c40fc1bfbe2920e28d145390b17d28d62daf9d02a6077dae9d32422391267",
          "blockNumber": "0x4a3411",
          "transactionHash": "0xfdee0b3286a7ce00cd15bf110ceff68b6c8ee28e06cbbd677fe85f6c929dec5b",
          "transactionIndex": "0x0",
          "logIndex": "0x3",
          "removed": false
        }
      ],
      "status": "0x1",
      "logsBloom": "0x00000000000000002000000000000000000080000000000000000000000000000000000000000000000000000000000000000000000000000000000000002000000000200000000000000000000000000000000000000000000200000000000000000000820000000101000000000800000000000000000000000000000000000000000000000000000004000000000000000000000000000000000000000000000000000000000000000000000000000000000000000000000000000000000000000000000004000000000000000000000000000008000000000000000020000000000000000000000000000000000000000000000000000000080000000000",
      "type": "0x2",
      "effectiveGasPrice": "0xb9684a71"
    },
    {
      "transactionHash": "0x971ab8afb6e3c69ded4d49d3fc973dfaeb0d28b7b53c0056019bc3620231edca",
      "transactionIndex": "0x1",
      "blockHash": "0x382c40fc1bfbe2920e28d145390b17d28d62daf9d02a6077dae9d32422391267",
      "blockNumber": "0x4a3411",
      "from": "0x8906EA0bc4b4e62314417eCdcbe45757112720E8",
      "to": "0xf89C0496984c80aBB13577337ceE3c152C804e9F",
      "cumulativeGasUsed": "0x63d12",
      "gasUsed": "0x42d5c",
      "contractAddress": null,
      "logs": [
        {
          "address": "0xdec77A6595a6870CbA1E9313C2d97d852b6b1737",
          "topics": [
            "0xc3d58168c5ae7397731d063d5bbf3d657854427343f4c083240f7aacaa2d0f62",
            "0x000000000000000000000000f89c0496984c80abb13577337cee3c152c804e9f",
            "0x0000000000000000000000000000000000000000000000000000000000000000",
            "0x0000000000000000000000008906ea0bc4b4e62314417ecdcbe45757112720e8"
          ],
          "data": "0x00000000000000000000000000000000000000000000000000000000000000000000000000000000000000000000000000000000000000000000000000000014",
          "blockHash": "0x382c40fc1bfbe2920e28d145390b17d28d62daf9d02a6077dae9d32422391267",
          "blockNumber": "0x4a3411",
          "transactionHash": "0x971ab8afb6e3c69ded4d49d3fc973dfaeb0d28b7b53c0056019bc3620231edca",
          "transactionIndex": "0x1",
          "logIndex": "0x4",
          "removed": false
        },
        {
          "address": "0xdec77A6595a6870CbA1E9313C2d97d852b6b1737",
          "topics": [
            "0xc3d58168c5ae7397731d063d5bbf3d657854427343f4c083240f7aacaa2d0f62",
            "0x000000000000000000000000f89c0496984c80abb13577337cee3c152c804e9f",
            "0x0000000000000000000000000000000000000000000000000000000000000000",
            "0x0000000000000000000000008906ea0bc4b4e62314417ecdcbe45757112720e8"
          ],
          "data": "0x00000000000000000000000000000000000000000000000000000000000000010000000000000000000000000000000000000000000000000000000000000014",
          "blockHash": "0x382c40fc1bfbe2920e28d145390b17d28d62daf9d02a6077dae9d32422391267",
          "blockNumber": "0x4a3411",
          "transactionHash": "0x971ab8afb6e3c69ded4d49d3fc973dfaeb0d28b7b53c0056019bc3620231edca",
          "transactionIndex": "0x1",
          "logIndex": "0x5",
          "removed": false
        },
        {
          "address": "0xdec77A6595a6870CbA1E9313C2d97d852b6b1737",
          "topics": [
            "0xc3d58168c5ae7397731d063d5bbf3d657854427343f4c083240f7aacaa2d0f62",
            "0x000000000000000000000000f89c0496984c80abb13577337cee3c152c804e9f",
            "0x0000000000000000000000000000000000000000000000000000000000000000",
            "0x0000000000000000000000008906ea0bc4b4e62314417ecdcbe45757112720e8"
          ],
          "data": "0x00000000000000000000000000000000000000000000000000000000000000020000000000000000000000000000000000000000000000000000000000000014",
          "blockHash": "0x382c40fc1bfbe2920e28d145390b17d28d62daf9d02a6077dae9d32422391267",
          "blockNumber": "0x4a3411",
          "transactionHash": "0x971ab8afb6e3c69ded4d49d3fc973dfaeb0d28b7b53c0056019bc3620231edca",
          "transactionIndex": "0x1",
          "logIndex": "0x6",
          "removed": false
        },
        {
          "address": "0xdec77A6595a6870CbA1E9313C2d97d852b6b1737",
          "topics": [
            "0xc3d58168c5ae7397731d063d5bbf3d657854427343f4c083240f7aacaa2d0f62",
            "0x000000000000000000000000f89c0496984c80abb13577337cee3c152c804e9f",
            "0x0000000000000000000000000000000000000000000000000000000000000000",
            "0x0000000000000000000000008906ea0bc4b4e62314417ecdcbe45757112720e8"
          ],
          "data": "0x00000000000000000000000000000000000000000000000000000000000000030000000000000000000000000000000000000000000000000000000000000014",
          "blockHash": "0x382c40fc1bfbe2920e28d145390b17d28d62daf9d02a6077dae9d32422391267",
          "blockNumber": "0x4a3411",
          "transactionHash": "0x971ab8afb6e3c69ded4d49d3fc973dfaeb0d28b7b53c0056019bc3620231edca",
          "transactionIndex": "0x1",
          "logIndex": "0x7",
          "removed": false
        }
      ],
      "status": "0x1",
      "logsBloom": "0x00000000000000802000000000000000000080000000000000000000000000000000000000000000000000000000000000000000000000000000000000002000000000200000000000000000000000000000000000000000000200000000000000000000820000000100000000000800000000000000000000000000000000000000000000000000000000000000000000000000000000000000000000000000000000000000000000000000080000000000000000040000000000000000000000000000000000000000000000000000000000000008000000000000000020000000000000000000000000000000000000000000000000000000080000000000",
      "type": "0x2",
      "effectiveGasPrice": "0xb9684a71"
    },
    {
      "transactionHash": "0x6ef1686a3fb51544700881d5db851adaf21d77fb6b0a7028d3993df904e7a52f",
      "transactionIndex": "0x2",
      "blockHash": "0x382c40fc1bfbe2920e28d145390b17d28d62daf9d02a6077dae9d32422391267",
      "blockNumber": "0x4a3411",
      "from": "0x8906EA0bc4b4e62314417eCdcbe45757112720E8",
      "to": "0xdec77A6595a6870CbA1E9313C2d97d852b6b1737",
      "cumulativeGasUsed": "0x776e1",
      "gasUsed": "0x139cf",
      "contractAddress": null,
      "logs": [
        {
          "address": "0xdec77A6595a6870CbA1E9313C2d97d852b6b1737",
          "topics": [
            "0xc3d58168c5ae7397731d063d5bbf3d657854427343f4c083240f7aacaa2d0f62",
            "0x0000000000000000000000008906ea0bc4b4e62314417ecdcbe45757112720e8",
            "0x0000000000000000000000001804c8ab1f12e6bbf3894d4083f33e07309d1f38",
            "0x0000000000000000000000000000000000000000000000000000000000000000"
          ],
          "data": "0x00000000000000000000000000000000000000000000000000000000000000010000000000000000000000000000000000000000000000000000000000000001",
          "blockHash": "0x382c40fc1bfbe2920e28d145390b17d28d62daf9d02a6077dae9d32422391267",
          "blockNumber": "0x4a3411",
          "transactionHash": "0x6ef1686a3fb51544700881d5db851adaf21d77fb6b0a7028d3993df904e7a52f",
          "transactionIndex": "0x2",
          "logIndex": "0x8",
          "removed": false
        }
      ],
      "status": "0x1",
      "logsBloom": "0x00000000000000002000000000000000000080000000000000000000000000000000000000000000000000000000000000000000000000000000000000002000000000200000000000000000000000000000000000000000000200000000000000000000820000000101000000000800000000000000000000000000000000000000000000000000000004000000000000000000000000000000000000000000000000000000000000000000000000000000000000000000000000000000000000000000000004000000000000000000000000000008000000000000000020000000000000000000000000000000000000000000000000000000080000000000",
      "type": "0x2",
      "effectiveGasPrice": "0xb9684a71"
    }
  ],
  "libraries": [],
  "pending": [],
  "returns": {},
  "timestamp": 1702257955,
  "chain": 11155111,
  "multi": false,
  "commit": "76bf826"
}